{
  "contractName": "SupplyChain",
  "abi": [
    {
      "inputs": [],
      "stateMutability": "nonpayable",
      "type": "constructor"
    },
    {
      "inputs": [
        {
          "internalType": "uint256",
          "name": "",
          "type": "uint256"
        }
      ],
      "name": "DIS",
      "outputs": [
        {
          "internalType": "address",
          "name": "addr",
          "type": "address"
        },
        {
          "internalType": "uint256",
          "name": "id",
          "type": "uint256"
        },
        {
          "internalType": "string",
          "name": "name",
          "type": "string"
        },
        {
          "internalType": "string",
          "name": "place",
          "type": "string"
        }
      ],
      "stateMutability": "view",
      "type": "function",
      "constant": true
    },
    {
      "inputs": [
        {
          "internalType": "uint256",
          "name": "",
          "type": "uint256"
        }
      ],
      "name": "MAN",
      "outputs": [
        {
          "internalType": "address",
          "name": "addr",
          "type": "address"
        },
        {
          "internalType": "uint256",
          "name": "id",
          "type": "uint256"
        },
        {
          "internalType": "string",
          "name": "name",
          "type": "string"
        },
        {
          "internalType": "string",
          "name": "place",
          "type": "string"
        }
      ],
      "stateMutability": "view",
      "type": "function",
      "constant": true
    },
    {
      "inputs": [
        {
          "internalType": "uint256",
          "name": "",
          "type": "uint256"
        }
      ],
      "name": "MedicineStock",
      "outputs": [
        {
          "internalType": "uint256",
          "name": "id",
          "type": "uint256"
        },
        {
          "internalType": "string",
          "name": "name",
          "type": "string"
        },
        {
          "internalType": "string",
          "name": "description",
          "type": "string"
        },
        {
          "internalType": "uint256",
          "name": "RMSid",
          "type": "uint256"
        },
        {
          "internalType": "uint256",
          "name": "MANid",
          "type": "uint256"
        },
        {
          "internalType": "uint256",
          "name": "DISid",
          "type": "uint256"
        },
        {
          "internalType": "uint256",
          "name": "RETid",
          "type": "uint256"
        },
        {
          "internalType": "enum SupplyChain.STAGE",
          "name": "stage",
          "type": "uint8"
        }
      ],
      "stateMutability": "view",
      "type": "function",
      "constant": true
    },
    {
      "inputs": [],
      "name": "Owner",
      "outputs": [
        {
          "internalType": "address",
          "name": "",
          "type": "address"
        }
      ],
      "stateMutability": "view",
      "type": "function",
      "constant": true
    },
    {
      "inputs": [
        {
          "internalType": "uint256",
          "name": "",
          "type": "uint256"
        }
      ],
      "name": "RET",
      "outputs": [
        {
          "internalType": "address",
          "name": "addr",
          "type": "address"
        },
        {
          "internalType": "uint256",
          "name": "id",
          "type": "uint256"
        },
        {
          "internalType": "string",
          "name": "name",
          "type": "string"
        },
        {
          "internalType": "string",
          "name": "place",
          "type": "string"
        }
      ],
      "stateMutability": "view",
      "type": "function",
      "constant": true
    },
    {
      "inputs": [
        {
          "internalType": "uint256",
          "name": "",
          "type": "uint256"
        }
      ],
      "name": "RMS",
      "outputs": [
        {
          "internalType": "address",
          "name": "addr",
          "type": "address"
        },
        {
          "internalType": "uint256",
          "name": "id",
          "type": "uint256"
        },
        {
          "internalType": "string",
          "name": "name",
          "type": "string"
        },
        {
          "internalType": "string",
          "name": "place",
          "type": "string"
        }
      ],
      "stateMutability": "view",
      "type": "function",
      "constant": true
    },
    {
      "inputs": [],
      "name": "disCtr",
      "outputs": [
        {
          "internalType": "uint256",
          "name": "",
          "type": "uint256"
        }
      ],
      "stateMutability": "view",
      "type": "function",
      "constant": true
    },
    {
      "inputs": [],
      "name": "manCtr",
      "outputs": [
        {
          "internalType": "uint256",
          "name": "",
          "type": "uint256"
        }
      ],
      "stateMutability": "view",
      "type": "function",
      "constant": true
    },
    {
      "inputs": [],
      "name": "medicineCtr",
      "outputs": [
        {
          "internalType": "uint256",
          "name": "",
          "type": "uint256"
        }
      ],
      "stateMutability": "view",
      "type": "function",
      "constant": true
    },
    {
      "inputs": [],
      "name": "retCtr",
      "outputs": [
        {
          "internalType": "uint256",
          "name": "",
          "type": "uint256"
        }
      ],
      "stateMutability": "view",
      "type": "function",
      "constant": true
    },
    {
      "inputs": [],
      "name": "rmsCtr",
      "outputs": [
        {
          "internalType": "uint256",
          "name": "",
          "type": "uint256"
        }
      ],
      "stateMutability": "view",
      "type": "function",
      "constant": true
    },
    {
      "inputs": [
        {
          "internalType": "uint256",
          "name": "_medicineID",
          "type": "uint256"
        }
      ],
      "name": "showStage",
      "outputs": [
        {
          "internalType": "string",
          "name": "",
          "type": "string"
        }
      ],
      "stateMutability": "view",
      "type": "function",
      "constant": true
    },
    {
      "inputs": [
        {
          "internalType": "address",
          "name": "_address",
          "type": "address"
        },
        {
          "internalType": "string",
          "name": "_name",
          "type": "string"
        },
        {
          "internalType": "string",
          "name": "_place",
          "type": "string"
        }
      ],
      "name": "addRMS",
      "outputs": [],
      "stateMutability": "nonpayable",
      "type": "function"
    },
    {
      "inputs": [
        {
          "internalType": "address",
          "name": "_address",
          "type": "address"
        },
        {
          "internalType": "string",
          "name": "_name",
          "type": "string"
        },
        {
          "internalType": "string",
          "name": "_place",
          "type": "string"
        }
      ],
      "name": "addManufacturer",
      "outputs": [],
      "stateMutability": "nonpayable",
      "type": "function"
    },
    {
      "inputs": [
        {
          "internalType": "address",
          "name": "_address",
          "type": "address"
        },
        {
          "internalType": "string",
          "name": "_name",
          "type": "string"
        },
        {
          "internalType": "string",
          "name": "_place",
          "type": "string"
        }
      ],
      "name": "addDistributor",
      "outputs": [],
      "stateMutability": "nonpayable",
      "type": "function"
    },
    {
      "inputs": [
        {
          "internalType": "address",
          "name": "_address",
          "type": "address"
        },
        {
          "internalType": "string",
          "name": "_name",
          "type": "string"
        },
        {
          "internalType": "string",
          "name": "_place",
          "type": "string"
        }
      ],
      "name": "addRetailer",
      "outputs": [],
      "stateMutability": "nonpayable",
      "type": "function"
    },
    {
      "inputs": [
        {
          "internalType": "uint256",
          "name": "_medicineID",
          "type": "uint256"
        }
      ],
      "name": "RMSsupply",
      "outputs": [],
      "stateMutability": "nonpayable",
      "type": "function"
    },
    {
      "inputs": [
        {
          "internalType": "uint256",
          "name": "_medicineID",
          "type": "uint256"
        }
      ],
      "name": "Manufacturing",
      "outputs": [],
      "stateMutability": "nonpayable",
      "type": "function"
    },
    {
      "inputs": [
        {
          "internalType": "uint256",
          "name": "_medicineID",
          "type": "uint256"
        }
      ],
      "name": "Distribute",
      "outputs": [],
      "stateMutability": "nonpayable",
      "type": "function"
    },
    {
      "inputs": [
        {
          "internalType": "uint256",
          "name": "_medicineID",
          "type": "uint256"
        }
      ],
      "name": "Retail",
      "outputs": [],
      "stateMutability": "nonpayable",
      "type": "function"
    },
    {
      "inputs": [
        {
          "internalType": "uint256",
          "name": "_medicineID",
          "type": "uint256"
        }
      ],
      "name": "sold",
      "outputs": [],
      "stateMutability": "nonpayable",
      "type": "function"
    },
    {
      "inputs": [
        {
          "internalType": "string",
          "name": "_name",
          "type": "string"
        },
        {
          "internalType": "string",
          "name": "_description",
          "type": "string"
        }
      ],
      "name": "addMedicine",
      "outputs": [],
      "stateMutability": "nonpayable",
      "type": "function"
    }
  ],
  "bytecode": "0x60806040526000600155600060025560006003556000600455600060055534801561002957600080fd5b50336000806101000a81548173ffffffffffffffffffffffffffffffffffffffff021916908373ffffffffffffffffffffffffffffffffffffffff160217905550612883806100796000396000f3fe608060405234801561001057600080fd5b50600436106101425760003560e01c806386c18275116100b8578063b4a99a4e1161007c578063b4a99a4e1461033d578063cc4030691461035b578063dd2863981461038e578063e101a2e0146103ac578063eb1a06b5146103dc578063eef5cb401461041357610142565b806386c18275146102af5780638f4183cc146102cb5780639c03facb146102e7578063a48d335a14610303578063a95f29d91461031f57610142565b8063438e9c4d1161010a578063438e9c4d146101ec5780634def474a1461020a57806359bf286f146102265780636a992c9f146102595780637e43d94d14610275578063857ddb041461029357610142565b80632a4af440146101475780632b0187ac146101635780632b70b08d146101965780632bdb2e6b146101b25780633d753a1c146101d0575b600080fd5b610161600480360381019061015c91906122f2565b610446565b005b61017d600480360381019061017891906123dd565b610597565b60405161018d9493929190612487565b60405180910390f35b6101b060048036038101906101ab91906122f2565b6106f7565b005b6101ba610848565b6040516101c791906124fc565b60405180910390f35b6101ea60048036038101906101e591906123dd565b61084e565b005b6101f46109a7565b60405161020191906124fc565b60405180910390f35b610224600480360381019061021f91906123dd565b6109ad565b005b610240600480360381019061023b91906123dd565b610b06565b6040516102509493929190612487565b60405180910390f35b610273600480360381019061026e91906122f2565b610c66565b005b61027d610db7565b60405161028a91906124fc565b60405180910390f35b6102ad60048036038101906102a891906122f2565b610dbd565b005b6102c960048036038101906102c491906123dd565b610f0e565b005b6102e560048036038101906102e09190612371565b611067565b005b61030160048036038101906102fc91906123dd565b611267565b005b61031d600480360381019061031891906123dd565b6113c7565b005b610327611520565b60405161033491906124fc565b60405180910390f35b610345611526565b604051610352919061246c565b60405180910390f35b610375600480360381019061037091906123dd565b61154a565b6040516103859493929190612487565b60405180910390f35b6103966116aa565b6040516103a391906124fc565b60405180910390f35b6103c660048036038101906103c191906123dd565b6116b0565b6040516103d391906124da565b60405180910390f35b6103f660048036038101906103f191906123dd565b611bdc565b60405161040a989796959493929190612517565b60405180910390f35b61042d600480360381019061042891906123dd565b611d41565b60405161043d9493929190612487565b60405180910390f35b60008054906101000a900473ffffffffffffffffffffffffffffffffffffffff1673ffffffffffffffffffffffffffffffffffffffff163373ffffffffffffffffffffffffffffffffffffffff161461049e57600080fd5b600460008154809291906104b1906126f5565b919050555060405180608001604052808473ffffffffffffffffffffffffffffffffffffffff16815260200160045481526020018381526020018281525060096000600454815260200190815260200160002060008201518160000160006101000a81548173ffffffffffffffffffffffffffffffffffffffff021916908373ffffffffffffffffffffffffffffffffffffffff1602179055506020820151816001015560408201518160020190805190602001906105719291906121bd565b50606082015181600301908051906020019061058e9291906121bd565b50905050505050565b60096020528060005260406000206000915090508060000160009054906101000a900473ffffffffffffffffffffffffffffffffffffffff16908060010154908060020180546105e6906126c3565b80601f0160208091040260200160405190810160405280929190818152602001828054610612906126c3565b801561065f5780601f106106345761010080835404028352916020019161065f565b820191906000526020600020905b81548152906001019060200180831161064257829003601f168201915b505050505090806003018054610674906126c3565b80601f01602080910402602001604051908101604052809291908181526020018280546106a0906126c3565b80156106ed5780601f106106c2576101008083540402835291602001916106ed565b820191906000526020600020905b8154815290600101906020018083116106d057829003601f168201915b5050505050905084565b60008054906101000a900473ffffffffffffffffffffffffffffffffffffffff1673ffffffffffffffffffffffffffffffffffffffff163373ffffffffffffffffffffffffffffffffffffffff161461074f57600080fd5b60026000815480929190610762906126f5565b919050555060405180608001604052808473ffffffffffffffffffffffffffffffffffffffff16815260200160025481526020018381526020018281525060076000600254815260200190815260200160002060008201518160000160006101000a81548173ffffffffffffffffffffffffffffffffffffffff021916908373ffffffffffffffffffffffffffffffffffffffff1602179055506020820151816001015560408201518160020190805190602001906108229291906121bd565b50606082015181600301908051906020019061083f9291906121bd565b50905050505050565b60045481565b60008111801561086057506001548111155b61086957600080fd5b600061087433611ea1565b90506000811161088357600080fd5b600360058111156108bd577f4e487b7100000000000000000000000000000000000000000000000000000000600052602160045260246000fd5b6006600084815260200190815260200160002060070160009054906101000a900460ff166005811115610919577f4e487b7100000000000000000000000000000000000000000000000000000000600052602160045260246000fd5b1461092357600080fd5b80600660008481526020019081526020016000206006018190555060046006600084815260200190815260200160002060070160006101000a81548160ff0219169083600581111561099e577f4e487b7100000000000000000000000000000000000000000000000000000000600052602160045260246000fd5b02179055505050565b60035481565b6000811180156109bf57506001548111155b6109c857600080fd5b60006109d333611f68565b9050600081116109e257600080fd5b60026005811115610a1c577f4e487b7100000000000000000000000000000000000000000000000000000000600052602160045260246000fd5b6006600084815260200190815260200160002060070160009054906101000a900460ff166005811115610a78577f4e487b7100000000000000000000000000000000000000000000000000000000600052602160045260246000fd5b14610a8257600080fd5b80600660008481526020019081526020016000206005018190555060036006600084815260200190815260200160002060070160006101000a81548160ff02191690836005811115610afd577f4e487b7100000000000000000000000000000000000000000000000000000000600052602160045260246000fd5b02179055505050565b600a6020528060005260406000206000915090508060000160009054906101000a900473ffffffffffffffffffffffffffffffffffffffff1690806001015490806002018054610b55906126c3565b80601f0160208091040260200160405190810160405280929190818152602001828054610b81906126c3565b8015610bce5780601f10610ba357610100808354040283529160200191610bce565b820191906000526020600020905b815481529060010190602001808311610bb157829003601f168201915b505050505090806003018054610be3906126c3565b80601f0160208091040260200160405190810160405280929190818152602001828054610c0f906126c3565b8015610c5c5780601f10610c3157610100808354040283529160200191610c5c565b820191906000526020600020905b815481529060010190602001808311610c3f57829003601f168201915b5050505050905084565b60008054906101000a900473ffffffffffffffffffffffffffffffffffffffff1673ffffffffffffffffffffffffffffffffffffffff163373ffffffffffffffffffffffffffffffffffffffff1614610cbe57600080fd5b60036000815480929190610cd1906126f5565b919050555060405180608001604052808473ffffffffffffffffffffffffffffffffffffffff16815260200160035481526020018381526020018281525060086000600354815260200190815260200160002060008201518160000160006101000a81548173ffffffffffffffffffffffffffffffffffffffff021916908373ffffffffffffffffffffffffffffffffffffffff160217905550602082015181600101556040820151816002019080519060200190610d919291906121bd565b506060820151816003019080519060200190610dae9291906121bd565b50905050505050565b60055481565b60008054906101000a900473ffffffffffffffffffffffffffffffffffffffff1673ffffffffffffffffffffffffffffffffffffffff163373ffffffffffffffffffffffffffffffffffffffff1614610e1557600080fd5b60056000815480929190610e28906126f5565b919050555060405180608001604052808473ffffffffffffffffffffffffffffffffffffffff168152602001600554815260200183815260200182815250600a6000600554815260200190815260200160002060008201518160000160006101000a81548173ffffffffffffffffffffffffffffffffffffffff021916908373ffffffffffffffffffffffffffffffffffffffff160217905550602082015181600101556040820151816002019080519060200190610ee89291906121bd565b506060820151816003019080519060200190610f059291906121bd565b50905050505050565b600081118015610f2057506001548111155b610f2957600080fd5b6000610f343361202f565b905060008111610f4357600080fd5b60006005811115610f7d577f4e487b7100000000000000000000000000000000000000000000000000000000600052602160045260246000fd5b6006600084815260200190815260200160002060070160009054906101000a900460ff166005811115610fd9577f4e487b7100000000000000000000000000000000000000000000000000000000600052602160045260246000fd5b14610fe357600080fd5b80600660008481526020019081526020016000206003018190555060016006600084815260200190815260200160002060070160006101000a81548160ff0219169083600581111561105e577f4e487b7100000000000000000000000000000000000000000000000000000000600052602160045260246000fd5b02179055505050565b60008054906101000a900473ffffffffffffffffffffffffffffffffffffffff1673ffffffffffffffffffffffffffffffffffffffff163373ffffffffffffffffffffffffffffffffffffffff16146110bf57600080fd5b60006002541180156110d357506000600354115b80156110e157506000600454115b80156110ef57506000600554115b6110f857600080fd5b6001600081548092919061110b906126f5565b919050555060405180610100016040528060015481526020018381526020018281526020016000815260200160008152602001600081526020016000815260200160006005811115611186577f4e487b7100000000000000000000000000000000000000000000000000000000600052602160045260246000fd5b8152506006600060015481526020019081526020016000206000820151816000015560208201518160010190805190602001906111c49291906121bd565b5060408201518160020190805190602001906111e19291906121bd565b50606082015181600301556080820151816004015560a0820151816005015560c0820151816006015560e08201518160070160006101000a81548160ff0219169083600581111561125b577f4e487b7100000000000000000000000000000000000000000000000000000000600052602160045260246000fd5b02179055509050505050565b60008111801561127957506001548111155b61128257600080fd5b600061128d33611ea1565b90506000811161129c57600080fd5b600660008381526020019081526020016000206006015481146112be57600080fd5b600460058111156112f8577f4e487b7100000000000000000000000000000000000000000000000000000000600052602160045260246000fd5b6006600084815260200190815260200160002060070160009054906101000a900460ff166005811115611354577f4e487b7100000000000000000000000000000000000000000000000000000000600052602160045260246000fd5b1461135e57600080fd5b60056006600084815260200190815260200160002060070160006101000a81548160ff021916908360058111156113be577f4e487b7100000000000000000000000000000000000000000000000000000000600052602160045260246000fd5b02179055505050565b6000811180156113d957506001548111155b6113e257600080fd5b60006113ed336120f6565b9050600081116113fc57600080fd5b60016005811115611436577f4e487b7100000000000000000000000000000000000000000000000000000000600052602160045260246000fd5b6006600084815260200190815260200160002060070160009054906101000a900460ff166005811115611492577f4e487b7100000000000000000000000000000000000000000000000000000000600052602160045260246000fd5b1461149c57600080fd5b80600660008481526020019081526020016000206004018190555060026006600084815260200190815260200160002060070160006101000a81548160ff02191690836005811115611517577f4e487b7100000000000000000000000000000000000000000000000000000000600052602160045260246000fd5b02179055505050565b60015481565b60008054906101000a900473ffffffffffffffffffffffffffffffffffffffff1681565b60086020528060005260406000206000915090508060000160009054906101000a900473ffffffffffffffffffffffffffffffffffffffff1690806001015490806002018054611599906126c3565b80601f01602080910402602001604051908101604052809291908181526020018280546115c5906126c3565b80156116125780601f106115e757610100808354040283529160200191611612565b820191906000526020600020905b8154815290600101906020018083116115f557829003601f168201915b505050505090806003018054611627906126c3565b80601f0160208091040260200160405190810160405280929190818152602001828054611653906126c3565b80156116a05780601f10611675576101008083540402835291602001916116a0565b820191906000526020600020905b81548152906001019060200180831161168357829003601f168201915b5050505050905084565b60025481565b60606000600154116116c157600080fd5b600060058111156116fb577f4e487b7100000000000000000000000000000000000000000000000000000000600052602160045260246000fd5b6006600084815260200190815260200160002060070160009054906101000a900460ff166005811115611757577f4e487b7100000000000000000000000000000000000000000000000000000000600052602160045260246000fd5b141561179a576040518060400160405280601081526020017f4d65646963696e65204f726465726564000000000000000000000000000000008152509050611bd7565b600160058111156117d4577f4e487b7100000000000000000000000000000000000000000000000000000000600052602160045260246000fd5b6006600084815260200190815260200160002060070160009054906101000a900460ff166005811115611830577f4e487b7100000000000000000000000000000000000000000000000000000000600052602160045260246000fd5b1415611873576040518060400160405280601981526020017f526177204d6174657269616c20537570706c79205374616765000000000000008152509050611bd7565b600260058111156118ad577f4e487b7100000000000000000000000000000000000000000000000000000000600052602160045260246000fd5b6006600084815260200190815260200160002060070160009054906101000a900460ff166005811115611909577f4e487b7100000000000000000000000000000000000000000000000000000000600052602160045260246000fd5b141561194c576040518060400160405280601381526020017f4d616e75666163747572696e67205374616765000000000000000000000000008152509050611bd7565b60036005811115611986577f4e487b7100000000000000000000000000000000000000000000000000000000600052602160045260246000fd5b6006600084815260200190815260200160002060070160009054906101000a900460ff1660058111156119e2577f4e487b7100000000000000000000000000000000000000000000000000000000600052602160045260246000fd5b1415611a25576040518060400160405280601281526020017f446973747269627574696f6e20537461676500000000000000000000000000008152509050611bd7565b60046005811115611a5f577f4e487b7100000000000000000000000000000000000000000000000000000000600052602160045260246000fd5b6006600084815260200190815260200160002060070160009054906101000a900460ff166005811115611abb577f4e487b7100000000000000000000000000000000000000000000000000000000600052602160045260246000fd5b1415611afe576040518060400160405280600c81526020017f52657461696c20537461676500000000000000000000000000000000000000008152509050611bd7565b600580811115611b37577f4e487b7100000000000000000000000000000000000000000000000000000000600052602160045260246000fd5b6006600084815260200190815260200160002060070160009054906101000a900460ff166005811115611b93577f4e487b7100000000000000000000000000000000000000000000000000000000600052602160045260246000fd5b1415611bd6576040518060400160405280600d81526020017f4d65646963696e6520536f6c64000000000000000000000000000000000000008152509050611bd7565b5b919050565b6006602052806000526040600020600091509050806000015490806001018054611c05906126c3565b80601f0160208091040260200160405190810160405280929190818152602001828054611c31906126c3565b8015611c7e5780601f10611c5357610100808354040283529160200191611c7e565b820191906000526020600020905b815481529060010190602001808311611c6157829003601f168201915b505050505090806002018054611c93906126c3565b80601f0160208091040260200160405190810160405280929190818152602001828054611cbf906126c3565b8015611d0c5780601f10611ce157610100808354040283529160200191611d0c565b820191906000526020600020905b815481529060010190602001808311611cef57829003601f168201915b5050505050908060030154908060040154908060050154908060060154908060070160009054906101000a900460ff16905088565b60076020528060005260406000206000915090508060000160009054906101000a900473ffffffffffffffffffffffffffffffffffffffff1690806001015490806002018054611d90906126c3565b80601f0160208091040260200160405190810160405280929190818152602001828054611dbc906126c3565b8015611e095780601f10611dde57610100808354040283529160200191611e09565b820191906000526020600020905b815481529060010190602001808311611dec57829003601f168201915b505050505090806003018054611e1e906126c3565b80601f0160208091040260200160405190810160405280929190818152602001828054611e4a906126c3565b8015611e975780601f10611e6c57610100808354040283529160200191611e97565b820191906000526020600020905b815481529060010190602001808311611e7a57829003601f168201915b5050505050905084565b60008060055411611eb157600080fd5b6000600190505b6005548111611f5d578273ffffffffffffffffffffffffffffffffffffffff16600a600083815260200190815260200160002060000160009054906101000a900473ffffffffffffffffffffffffffffffffffffffff1673ffffffffffffffffffffffffffffffffffffffff161415611f4a57600a600082815260200190815260200160002060010154915050611f63565b8080611f55906126f5565b915050611eb8565b50600090505b919050565b60008060045411611f7857600080fd5b6000600190505b6004548111612024578273ffffffffffffffffffffffffffffffffffffffff166009600083815260200190815260200160002060000160009054906101000a900473ffffffffffffffffffffffffffffffffffffffff1673ffffffffffffffffffffffffffffffffffffffff16141561201157600960008281526020019081526020016000206001015491505061202a565b808061201c906126f5565b915050611f7f565b50600090505b919050565b6000806002541161203f57600080fd5b6000600190505b60025481116120eb578273ffffffffffffffffffffffffffffffffffffffff166007600083815260200190815260200160002060000160009054906101000a900473ffffffffffffffffffffffffffffffffffffffff1673ffffffffffffffffffffffffffffffffffffffff1614156120d85760076000828152602001908152602001600020600101549150506120f1565b80806120e3906126f5565b915050612046565b50600090505b919050565b6000806003541161210657600080fd5b6000600190505b60035481116121b2578273ffffffffffffffffffffffffffffffffffffffff166008600083815260200190815260200160002060000160009054906101000a900473ffffffffffffffffffffffffffffffffffffffff1673ffffffffffffffffffffffffffffffffffffffff16141561219f5760086000828152602001908152602001600020600101549150506121b8565b80806121aa906126f5565b91505061210d565b50600090505b919050565b8280546121c9906126c3565b90600052602060002090601f0160209004810192826121eb5760008555612232565b82601f1061220457805160ff1916838001178555612232565b82800160010185558215612232579182015b82811115612231578251825591602001919060010190612216565b5b50905061223f9190612243565b5090565b5b8082111561225c576000816000905550600101612244565b5090565b600061227361226e846125d4565b6125a3565b90508281526020810184848401111561228b57600080fd5b612296848285612681565b509392505050565b6000813590506122ad8161281f565b92915050565b600082601f8301126122c457600080fd5b81356122d4848260208601612260565b91505092915050565b6000813590506122ec81612836565b92915050565b60008060006060848603121561230757600080fd5b60006123158682870161229e565b935050602084013567ffffffffffffffff81111561233257600080fd5b61233e868287016122b3565b925050604084013567ffffffffffffffff81111561235b57600080fd5b612367868287016122b3565b9150509250925092565b6000806040838503121561238457600080fd5b600083013567ffffffffffffffff81111561239e57600080fd5b6123aa858286016122b3565b925050602083013567ffffffffffffffff8111156123c757600080fd5b6123d3858286016122b3565b9150509250929050565b6000602082840312156123ef57600080fd5b60006123fd848285016122dd565b91505092915050565b61240f81612620565b82525050565b61241e8161266f565b82525050565b600061242f82612604565b612439818561260f565b9350612449818560208601612690565b612452816127fa565b840191505092915050565b61246681612665565b82525050565b60006020820190506124816000830184612406565b92915050565b600060808201905061249c6000830187612406565b6124a9602083018661245d565b81810360408301526124bb8185612424565b905081810360608301526124cf8184612424565b905095945050505050565b600060208201905081810360008301526124f48184612424565b905092915050565b6000602082019050612511600083018461245d565b92915050565b60006101008201905061252d600083018b61245d565b818103602083015261253f818a612424565b905081810360408301526125538189612424565b9050612562606083018861245d565b61256f608083018761245d565b61257c60a083018661245d565b61258960c083018561245d565b61259660e0830184612415565b9998505050505050505050565b6000604051905081810181811067ffffffffffffffff821117156125ca576125c96127cb565b5b8060405250919050565b600067ffffffffffffffff8211156125ef576125ee6127cb565b5b601f19601f8301169050602081019050919050565b600081519050919050565b600082825260208201905092915050565b600061262b82612645565b9050919050565b60008190506126408261280b565b919050565b600073ffffffffffffffffffffffffffffffffffffffff82169050919050565b6000819050919050565b600061267a82612632565b9050919050565b82818337600083830152505050565b60005b838110156126ae578082015181840152602081019050612693565b838111156126bd576000848401525b50505050565b600060028204905060018216806126db57607f821691505b602082108114156126ef576126ee61279c565b5b50919050565b600061270082612665565b91507fffffffffffffffffffffffffffffffffffffffffffffffffffffffffffffffff8214156127335761273261273e565b5b600182019050919050565b7f4e487b7100000000000000000000000000000000000000000000000000000000600052601160045260246000fd5b7f4e487b7100000000000000000000000000000000000000000000000000000000600052602160045260246000fd5b7f4e487b7100000000000000000000000000000000000000000000000000000000600052602260045260246000fd5b7f4e487b7100000000000000000000000000000000000000000000000000000000600052604160045260246000fd5b6000601f19601f8301169050919050565b6006811061281c5761281b61276d565b5b50565b61282881612620565b811461283357600080fd5b50565b61283f81612665565b811461284a57600080fd5b5056fea264697066735822122077d4f33d8889edcdeae02823d73417003fac330637795b422593c17db378a32364736f6c63430008000033",
  "immutableReferences": {},
  "source": "// SPDX-License-Identifier: MIT\npragma solidity >=0.4.22 <0.9.0;\n\ncontract SupplyChain {\n    //Smart Contract owner will be the person who deploys the contract only he can authorize various roles like retailer, Manufacturer,etc\n    address public Owner;\n\n    //note this constructor will be called when smart contract will be deployed on blockchain\n    constructor() public {\n        Owner = msg.sender;\n    }\n\n    //Roles (flow of pharma supply chain)\n    // RawMaterialSupplier; //This is where Manufacturer will get raw materials to make medicines\n    // Manufacturer;  //Various WHO guidelines should be followed by this person\n    // Distributor; //This guy distributes the medicines to retailers\n    // Retailer; //Normal customer buys from the retailer\n\n    //modifier to make sure only the owner is using the function\n    modifier onlyByOwner() {\n        require(msg.sender == Owner);\n        _;\n    }\n\n    //stages of a medicine in pharma supply chain\n    enum STAGE {\n        Init,\n        RawMaterialSupply,\n        Manufacture,\n        Distribution,\n        Retail,\n        sold\n    }\n    //using this we are going to track every single medicine the owner orders\n\n    //Medicine count\n    uint256 public medicineCtr = 0;\n    //Raw material supplier count\n    uint256 public rmsCtr = 0;\n    //Manufacturer count\n    uint256 public manCtr = 0;\n    //distributor count\n    uint256 public disCtr = 0;\n    //retailer count\n    uint256 public retCtr = 0;\n\n    //To store information about the medicine\n    struct medicine {\n        uint256 id; //unique medicine id\n        string name; //name of the medicine\n        string description; //about medicine\n        uint256 RMSid; //id of the Raw Material supplier for this particular medicine\n        uint256 MANid; //id of the Manufacturer for this particular medicine\n        uint256 DISid; //id of the distributor for this particular medicine\n        uint256 RETid; //id of the retailer for this particular medicine\n        STAGE stage; //current medicine stage\n    }\n\n    //To store all the medicines on the blockchain\n    mapping(uint256 => medicine) public MedicineStock;\n\n    //To show status to client applications\n    function showStage(uint256 _medicineID)\n        public\n        view\n        returns (string memory)\n    {\n        require(medicineCtr > 0);\n        if (MedicineStock[_medicineID].stage == STAGE.Init)\n            return \"Medicine Ordered\";\n        else if (MedicineStock[_medicineID].stage == STAGE.RawMaterialSupply)\n            return \"Raw Material Supply Stage\";\n        else if (MedicineStock[_medicineID].stage == STAGE.Manufacture)\n            return \"Manufacturing Stage\";\n        else if (MedicineStock[_medicineID].stage == STAGE.Distribution)\n            return \"Distribution Stage\";\n        else if (MedicineStock[_medicineID].stage == STAGE.Retail)\n            return \"Retail Stage\";\n        else if (MedicineStock[_medicineID].stage == STAGE.sold)\n            return \"Medicine Sold\";\n    }\n\n    //To store information about raw material supplier\n    struct rawMaterialSupplier {\n        address addr;\n        uint256 id; //supplier id\n        string name; //Name of the raw material supplier\n        string place; //Place the raw material supplier is based in\n    }\n\n    //To store all the raw material suppliers on the blockchain\n    mapping(uint256 => rawMaterialSupplier) public RMS;\n\n    //To store information about manufacturer\n    struct manufacturer {\n        address addr;\n        uint256 id; //manufacturer id\n        string name; //Name of the manufacturer\n        string place; //Place the manufacturer is based in\n    }\n\n    //To store all the manufacturers on the blockchain\n    mapping(uint256 => manufacturer) public MAN;\n\n    //To store information about distributor\n    struct distributor {\n        address addr;\n        uint256 id; //distributor id\n        string name; //Name of the distributor\n        string place; //Place the distributor is based in\n    }\n\n    //To store all the distributors on the blockchain\n    mapping(uint256 => distributor) public DIS;\n\n    //To store information about retailer\n    struct retailer {\n        address addr;\n        uint256 id; //retailer id\n        string name; //Name of the retailer\n        string place; //Place the retailer is based in\n    }\n\n    //To store all the retailers on the blockchain\n    mapping(uint256 => retailer) public RET;\n\n    //To add raw material suppliers. Only contract owner can add a new raw material supplier\n    function addRMS(\n        address _address,\n        string memory _name,\n        string memory _place\n    ) public onlyByOwner() {\n        rmsCtr++;\n        RMS[rmsCtr] = rawMaterialSupplier(_address, rmsCtr, _name, _place);\n    }\n\n    //To add manufacturer. Only contract owner can add a new manufacturer\n    function addManufacturer(\n        address _address,\n        string memory _name,\n        string memory _place\n    ) public onlyByOwner() {\n        manCtr++;\n        MAN[manCtr] = manufacturer(_address, manCtr, _name, _place);\n    }\n\n    //To add distributor. Only contract owner can add a new distributor\n    function addDistributor(\n        address _address,\n        string memory _name,\n        string memory _place\n    ) public onlyByOwner() {\n        disCtr++;\n        DIS[disCtr] = distributor(_address, disCtr, _name, _place);\n    }\n\n    //To add retailer. Only contract owner can add a new retailer\n    function addRetailer(\n        address _address,\n        string memory _name,\n        string memory _place\n    ) public onlyByOwner() {\n        retCtr++;\n        RET[retCtr] = retailer(_address, retCtr, _name, _place);\n    }\n\n    //To supply raw materials from RMS supplier to the manufacturer\n    function RMSsupply(uint256 _medicineID) public {\n        require(_medicineID > 0 && _medicineID <= medicineCtr);\n        uint256 _id = findRMS(msg.sender);\n        require(_id > 0);\n        require(MedicineStock[_medicineID].stage == STAGE.Init);\n        MedicineStock[_medicineID].RMSid = _id;\n        MedicineStock[_medicineID].stage = STAGE.RawMaterialSupply;\n    }\n\n    //To check if RMS is available in the blockchain\n    function findRMS(address _address) private view returns (uint256) {\n        require(rmsCtr > 0);\n        for (uint256 i = 1; i <= rmsCtr; i++) {\n            if (RMS[i].addr == _address) return RMS[i].id;\n        }\n        return 0;\n    }\n\n    //To manufacture medicine\n    function Manufacturing(uint256 _medicineID) public {\n        require(_medicineID > 0 && _medicineID <= medicineCtr);\n        uint256 _id = findMAN(msg.sender);\n        require(_id > 0);\n        require(MedicineStock[_medicineID].stage == STAGE.RawMaterialSupply);\n        MedicineStock[_medicineID].MANid = _id;\n        MedicineStock[_medicineID].stage = STAGE.Manufacture;\n    }\n\n    //To check if Manufacturer is available in the blockchain\n    function findMAN(address _address) private view returns (uint256) {\n        require(manCtr > 0);\n        for (uint256 i = 1; i <= manCtr; i++) {\n            if (MAN[i].addr == _address) return MAN[i].id;\n        }\n        return 0;\n    }\n\n    //To supply medicines from Manufacturer to distributor\n    function Distribute(uint256 _medicineID) public {\n        require(_medicineID > 0 && _medicineID <= medicineCtr);\n        uint256 _id = findDIS(msg.sender);\n        require(_id > 0);\n        require(MedicineStock[_medicineID].stage == STAGE.Manufacture);\n        MedicineStock[_medicineID].DISid = _id;\n        MedicineStock[_medicineID].stage = STAGE.Distribution;\n    }\n\n    //To check if distributor is available in the blockchain\n    function findDIS(address _address) private view returns (uint256) {\n        require(disCtr > 0);\n        for (uint256 i = 1; i <= disCtr; i++) {\n            if (DIS[i].addr == _address) return DIS[i].id;\n        }\n        return 0;\n    }\n\n    //To supply medicines from distributor to retailer\n    function Retail(uint256 _medicineID) public {\n        require(_medicineID > 0 && _medicineID <= medicineCtr);\n        uint256 _id = findRET(msg.sender);\n        require(_id > 0);\n        require(MedicineStock[_medicineID].stage == STAGE.Distribution);\n        MedicineStock[_medicineID].RETid = _id;\n        MedicineStock[_medicineID].stage = STAGE.Retail;\n    }\n\n    //To check if retailer is available in the blockchain\n    function findRET(address _address) private view returns (uint256) {\n        require(retCtr > 0);\n        for (uint256 i = 1; i <= retCtr; i++) {\n            if (RET[i].addr == _address) return RET[i].id;\n        }\n        return 0;\n    }\n\n    //To sell medicines from retailer to consumer\n    function sold(uint256 _medicineID) public {\n        require(_medicineID > 0 && _medicineID <= medicineCtr);\n        uint256 _id = findRET(msg.sender);\n        require(_id > 0);\n        require(_id == MedicineStock[_medicineID].RETid); //Only correct retailer can mark medicine as sold\n        require(MedicineStock[_medicineID].stage == STAGE.Retail);\n        MedicineStock[_medicineID].stage = STAGE.sold;\n    }\n\n    // To add new medicines to the stock\n    function addMedicine(string memory _name, string memory _description)\n        public\n        onlyByOwner()\n    {\n        require((rmsCtr > 0) && (manCtr > 0) && (disCtr > 0) && (retCtr > 0));\n        medicineCtr++;\n        MedicineStock[medicineCtr] = medicine(\n            medicineCtr,\n            _name,\n            _description,\n            0,\n            0,\n            0,\n            0,\n            STAGE.Init\n        );\n    }\n}\n",
  "sourcePath": "/Users/rigelynn/TobaccoSupplyChain/contracts/SupplyChain.sol",
  "compiler": {
    "name": "solc",
    "version": "0.8.0+commit.c7dfd78e.Emscripten.clang"
  },
  "schemaVersion": "3.4.16",
  "updatedAt": "2024-06-12T09:48:21.342Z",
  "networkType": "ethereum",
  "devdoc": {
    "kind": "dev",
    "methods": {},
    "version": 1
  },
  "userdoc": {
    "kind": "user",
    "methods": {},
    "version": 1
  }
}