{
  "contractName": "TobaccoSupplyChain",
  "abi": [
    {
      "anonymous": false,
      "inputs": [
        {
          "indexed": false,
          "internalType": "uint256",
          "name": "distributorID",
          "type": "uint256"
        },
        {
          "indexed": false,
          "internalType": "string",
          "name": "distributorName",
          "type": "string"
        },
        {
          "indexed": false,
          "internalType": "address",
          "name": "distributorAddress",
          "type": "address"
        }
      ],
      "name": "DistributorAdded",
      "type": "event"
    },
    {
      "anonymous": false,
      "inputs": [
        {
          "indexed": false,
          "internalType": "uint256",
          "name": "producerID",
          "type": "uint256"
        },
        {
          "indexed": false,
          "internalType": "string",
          "name": "producerName",
          "type": "string"
        },
        {
          "indexed": false,
          "internalType": "address",
          "name": "producerAddress",
          "type": "address"
        }
      ],
      "name": "ProducerAdded",
      "type": "event"
    },
    {
      "anonymous": false,
      "inputs": [
        {
          "indexed": false,
          "internalType": "uint256",
          "name": "retailorID",
          "type": "uint256"
        },
        {
          "indexed": false,
          "internalType": "string",
          "name": "retailorName",
          "type": "string"
        },
        {
          "indexed": false,
          "internalType": "address",
          "name": "retailorAddress",
          "type": "address"
        }
      ],
      "name": "RetailorAdded",
      "type": "event"
    },
    {
      "anonymous": false,
      "inputs": [
        {
          "indexed": false,
          "internalType": "uint256",
          "name": "tobaccoID",
          "type": "uint256"
        },
        {
          "indexed": false,
          "internalType": "string",
          "name": "tobaccoName",
          "type": "string"
        },
        {
          "indexed": false,
          "internalType": "uint256",
          "name": "producerID",
          "type": "uint256"
        },
        {
          "indexed": false,
          "internalType": "uint256",
          "name": "timestamp",
          "type": "uint256"
        }
      ],
      "name": "TobaccoAdded",
      "type": "event"
    },
    {
      "anonymous": false,
      "inputs": [
        {
          "indexed": false,
          "internalType": "uint256",
          "name": "tobaccoID",
          "type": "uint256"
        },
        {
          "indexed": false,
          "internalType": "uint256",
          "name": "retailorID",
          "type": "uint256"
        },
        {
          "indexed": false,
          "internalType": "uint256",
          "name": "timestamp",
          "type": "uint256"
        }
      ],
      "name": "TobaccoDistributed",
      "type": "event"
    },
    {
      "anonymous": false,
      "inputs": [
        {
          "indexed": false,
          "internalType": "uint256",
          "name": "tobaccoID",
          "type": "uint256"
        },
        {
          "indexed": false,
          "internalType": "uint256",
          "name": "timestamp",
          "type": "uint256"
        }
      ],
      "name": "TobaccoSold",
      "type": "event"
    },
    {
      "inputs": [],
      "name": "distributorCount",
      "outputs": [
        {
          "internalType": "uint256",
          "name": "",
          "type": "uint256"
        }
      ],
      "stateMutability": "view",
      "type": "function",
      "constant": true
    },
    {
      "inputs": [
        {
          "internalType": "uint256",
          "name": "",
          "type": "uint256"
        }
      ],
      "name": "distributors",
      "outputs": [
        {
          "internalType": "uint256",
          "name": "distributorID",
          "type": "uint256"
        },
        {
          "internalType": "string",
          "name": "distributorName",
          "type": "string"
        },
        {
          "internalType": "address",
          "name": "distributorAddress",
          "type": "address"
        },
        {
          "internalType": "string",
          "name": "distributorDescription",
          "type": "string"
        }
      ],
      "stateMutability": "view",
      "type": "function",
      "constant": true
    },
    {
      "inputs": [],
      "name": "producerCount",
      "outputs": [
        {
          "internalType": "uint256",
          "name": "",
          "type": "uint256"
        }
      ],
      "stateMutability": "view",
      "type": "function",
      "constant": true
    },
    {
      "inputs": [
        {
          "internalType": "uint256",
          "name": "",
          "type": "uint256"
        }
      ],
      "name": "producers",
      "outputs": [
        {
          "internalType": "uint256",
          "name": "producerID",
          "type": "uint256"
        },
        {
          "internalType": "string",
          "name": "producerName",
          "type": "string"
        },
        {
          "internalType": "address",
          "name": "producerAddress",
          "type": "address"
        },
        {
          "internalType": "string",
          "name": "producerDescription",
          "type": "string"
        }
      ],
      "stateMutability": "view",
      "type": "function",
      "constant": true
    },
    {
      "inputs": [],
      "name": "retailorCount",
      "outputs": [
        {
          "internalType": "uint256",
          "name": "",
          "type": "uint256"
        }
      ],
      "stateMutability": "view",
      "type": "function",
      "constant": true
    },
    {
      "inputs": [
        {
          "internalType": "uint256",
          "name": "",
          "type": "uint256"
        }
      ],
      "name": "retailors",
      "outputs": [
        {
          "internalType": "uint256",
          "name": "retailorID",
          "type": "uint256"
        },
        {
          "internalType": "string",
          "name": "retailorName",
          "type": "string"
        },
        {
          "internalType": "address",
          "name": "retailorAddress",
          "type": "address"
        },
        {
          "internalType": "string",
          "name": "retailorDescription",
          "type": "string"
        }
      ],
      "stateMutability": "view",
      "type": "function",
      "constant": true
    },
    {
      "inputs": [],
      "name": "tobaccoCount",
      "outputs": [
        {
          "internalType": "uint256",
          "name": "",
          "type": "uint256"
        }
      ],
      "stateMutability": "view",
      "type": "function",
      "constant": true
    },
    {
      "inputs": [
        {
          "internalType": "uint256",
          "name": "",
          "type": "uint256"
        }
      ],
      "name": "tobaccos",
      "outputs": [
        {
          "internalType": "uint256",
          "name": "tobaccoID",
          "type": "uint256"
        },
        {
          "internalType": "string",
          "name": "tobaccoName",
          "type": "string"
        },
        {
          "internalType": "address",
          "name": "owner",
          "type": "address"
        },
        {
          "internalType": "string",
          "name": "state",
          "type": "string"
        },
        {
          "internalType": "uint256",
          "name": "timestamp",
          "type": "uint256"
        }
      ],
      "stateMutability": "view",
      "type": "function",
      "constant": true
    },
    {
      "inputs": [
        {
          "internalType": "string",
          "name": "_producerName",
          "type": "string"
        },
        {
          "internalType": "address",
          "name": "_producerAddress",
          "type": "address"
        },
        {
          "internalType": "string",
          "name": "_producerDescription",
          "type": "string"
        }
      ],
      "name": "addProducer",
      "outputs": [],
      "stateMutability": "nonpayable",
      "type": "function"
    },
    {
      "inputs": [
        {
          "internalType": "string",
          "name": "_distributorName",
          "type": "string"
        },
        {
          "internalType": "address",
          "name": "_distributorAddress",
          "type": "address"
        },
        {
          "internalType": "string",
          "name": "_distributorDescription",
          "type": "string"
        }
      ],
      "name": "addDistributor",
      "outputs": [],
      "stateMutability": "nonpayable",
      "type": "function"
    },
    {
      "inputs": [
        {
          "internalType": "string",
          "name": "_retailorName",
          "type": "string"
        },
        {
          "internalType": "address",
          "name": "_retailorAddress",
          "type": "address"
        },
        {
          "internalType": "string",
          "name": "_retailorDescription",
          "type": "string"
        }
      ],
      "name": "addRetailor",
      "outputs": [],
      "stateMutability": "nonpayable",
      "type": "function"
    },
    {
      "inputs": [
        {
          "internalType": "string",
          "name": "_tobaccoName",
          "type": "string"
        },
        {
          "internalType": "uint256",
          "name": "_producerID",
          "type": "uint256"
        }
      ],
      "name": "addTobacco",
      "outputs": [],
      "stateMutability": "nonpayable",
      "type": "function"
    },
    {
      "inputs": [
        {
          "internalType": "uint256",
          "name": "_tobaccoID",
          "type": "uint256"
        },
        {
          "internalType": "uint256",
          "name": "_retailorID",
          "type": "uint256"
        }
      ],
      "name": "distributeProduct",
      "outputs": [],
      "stateMutability": "nonpayable",
      "type": "function"
    },
    {
      "inputs": [
        {
          "internalType": "uint256",
          "name": "_tobaccoID",
          "type": "uint256"
        }
      ],
      "name": "sellProduct",
      "outputs": [],
      "stateMutability": "nonpayable",
      "type": "function"
    }
  ],
  "bytecode": "0x6080604052600060045560006005556000600655600060075534801561002457600080fd5b50611c20806100346000396000f3fe608060405234801561001057600080fd5b50600436106100ea5760003560e01c806350b492ba1161008c5780639b68ade7116100665780639b68ade71461023b578063a01d955f1461026e578063d708fe5b1461028a578063ea5a2eb6146102a8576100ea565b806350b492ba146101cc5780635370b072146101ff57806363a4f4801461021d576100ea565b8063219b69ff116100c8578063219b69ff146101435780633ac140e81461015f578063492deb151461017d5780634f3dea6114610199576100ea565b806305c20269146100ef578063103cc8141461010b5780631ce2026d14610127575b600080fd5b610109600480360381019061010491906114d1565b6102dc565b005b61012560048036038101906101209190611454565b61053d565b005b610141600480360381019061013c91906113d5565b610793565b005b61015d600480360381019061015891906113d5565b6108c9565b005b6101676109ff565b60405161017491906117cf565b60405180910390f35b610197600480360381019061019291906114a8565b610a05565b005b6101b360048036038101906101ae91906114a8565b610bd3565b6040516101c39493929190611828565b60405180910390f35b6101e660048036038101906101e191906114a8565b610d33565b6040516101f69493929190611828565b60405180910390f35b610207610e93565b60405161021491906117cf565b60405180910390f35b610225610e99565b60405161023291906117cf565b60405180910390f35b610255600480360381019061025091906114a8565b610e9f565b6040516102659493929190611828565b60405180910390f35b610288600480360381019061028391906113d5565b610fff565b005b610292611134565b60405161029f91906117cf565b60405180910390f35b6102c260048036038101906102bd91906114a8565b61113a565b6040516102d395949392919061187b565b60405180910390f35b600073ffffffffffffffffffffffffffffffffffffffff166002600083815260200190815260200160002060020160009054906101000a900473ffffffffffffffffffffffffffffffffffffffff1673ffffffffffffffffffffffffffffffffffffffff161415610382576040517f08c379a00000000000000000000000000000000000000000000000000000000081526004016103799061174f565b60405180910390fd5b6000600360008481526020019081526020016000209050600073ffffffffffffffffffffffffffffffffffffffff168160020160009054906101000a900473ffffffffffffffffffffffffffffffffffffffff1673ffffffffffffffffffffffffffffffffffffffff16141561042d576040517f08c379a00000000000000000000000000000000000000000000000000000000081526004016104249061178f565b60405180910390fd5b6002600083815260200190815260200160002060020160009054906101000a900473ffffffffffffffffffffffffffffffffffffffff168160020160006101000a81548173ffffffffffffffffffffffffffffffffffffffff021916908373ffffffffffffffffffffffffffffffffffffffff1602179055506040518060400160405280600b81526020017f64697374726962757465640000000000000000000000000000000000000000008152508160030190805190602001906104f39291906112a0565b504281600401819055507f323125649736ed95059b4f83343e96541b14f5f8673480122dc33212ce6556ec83834260405161053093929190611951565b60405180910390a1505050565b600073ffffffffffffffffffffffffffffffffffffffff1660008083815260200190815260200160002060020160009054906101000a900473ffffffffffffffffffffffffffffffffffffffff1673ffffffffffffffffffffffffffffffffffffffff1614156105e2576040517f08c379a00000000000000000000000000000000000000000000000000000000081526004016105d9906117af565b60405180910390fd5b600760008154809291906105f590611ad5565b91905055506040518060a00160405280600754815260200183815260200160008084815260200190815260200160002060020160009054906101000a900473ffffffffffffffffffffffffffffffffffffffff1673ffffffffffffffffffffffffffffffffffffffff1681526020016040518060400160405280600881526020017f70726f64756365640000000000000000000000000000000000000000000000008152508152602001428152506003600060075481526020019081526020016000206000820151816000015560208201518160010190805190602001906106de9291906112a0565b5060408201518160020160006101000a81548173ffffffffffffffffffffffffffffffffffffffff021916908373ffffffffffffffffffffffffffffffffffffffff16021790555060608201518160030190805190602001906107429291906112a0565b50608082015181600401559050507f10b89b45a2b0aa72f5478f4a577d12a7377c647d66f71961b79ab561a407a5e460075483834260405161078794939291906118dc565b60405180910390a15050565b600660008154809291906107a690611ad5565b9190505550604051806080016040528060065481526020018481526020018373ffffffffffffffffffffffffffffffffffffffff1681526020018281525060026000600654815260200190815260200160002060008201518160000155602082015181600101908051906020019061081f9291906112a0565b5060408201518160020160006101000a81548173ffffffffffffffffffffffffffffffffffffffff021916908373ffffffffffffffffffffffffffffffffffffffff16021790555060608201518160030190805190602001906108839291906112a0565b509050507fbc06cf54dcc3bfa9b7a1021a1ceeb0301f5e976b33fe2207a2c1051417b4fa6f60065484846040516108bc939291906117ea565b60405180910390a1505050565b600560008154809291906108dc90611ad5565b9190505550604051806080016040528060055481526020018481526020018373ffffffffffffffffffffffffffffffffffffffff168152602001828152506001600060055481526020019081526020016000206000820151816000015560208201518160010190805190602001906109559291906112a0565b5060408201518160020160006101000a81548173ffffffffffffffffffffffffffffffffffffffff021916908373ffffffffffffffffffffffffffffffffffffffff16021790555060608201518160030190805190602001906109b99291906112a0565b509050507fa44cfba4712569442232960e6a50b8a57ace15a9406d30e158ad6ba44cb008cd60055484846040516109f2939291906117ea565b60405180910390a1505050565b60055481565b6000600360008381526020019081526020016000209050600073ffffffffffffffffffffffffffffffffffffffff168160020160009054906101000a900473ffffffffffffffffffffffffffffffffffffffff1673ffffffffffffffffffffffffffffffffffffffff161415610ab0576040517f08c379a0000000000000000000000000000000000000000000000000000000008152600401610aa79061178f565b60405180910390fd5b604051602001610abf9061173a565b6040516020818303038152906040528051906020012081600301604051602001610ae99190611723565b6040516020818303038152906040528051906020012014610b3f576040517f08c379a0000000000000000000000000000000000000000000000000000000008152600401610b369061176f565b60405180910390fd5b6040518060400160405280600481526020017f736f6c6400000000000000000000000000000000000000000000000000000000815250816003019080519060200190610b8c9291906112a0565b504281600401819055507f85ddc6dbc93b33c8a5d8ddcc70b0ac0bf8788d7f38815aa6e2f83b7515feb5f88242604051610bc7929190611928565b60405180910390a15050565b6002602052806000526040600020600091509050806000015490806001018054610bfc90611aa3565b80601f0160208091040260200160405190810160405280929190818152602001828054610c2890611aa3565b8015610c755780601f10610c4a57610100808354040283529160200191610c75565b820191906000526020600020905b815481529060010190602001808311610c5857829003601f168201915b5050505050908060020160009054906101000a900473ffffffffffffffffffffffffffffffffffffffff1690806003018054610cb090611aa3565b80601f0160208091040260200160405190810160405280929190818152602001828054610cdc90611aa3565b8015610d295780601f10610cfe57610100808354040283529160200191610d29565b820191906000526020600020905b815481529060010190602001808311610d0c57829003601f168201915b5050505050905084565b6001602052806000526040600020600091509050806000015490806001018054610d5c90611aa3565b80601f0160208091040260200160405190810160405280929190818152602001828054610d8890611aa3565b8015610dd55780601f10610daa57610100808354040283529160200191610dd5565b820191906000526020600020905b815481529060010190602001808311610db857829003601f168201915b5050505050908060020160009054906101000a900473ffffffffffffffffffffffffffffffffffffffff1690806003018054610e1090611aa3565b80601f0160208091040260200160405190810160405280929190818152602001828054610e3c90611aa3565b8015610e895780601f10610e5e57610100808354040283529160200191610e89565b820191906000526020600020905b815481529060010190602001808311610e6c57829003601f168201915b5050505050905084565b60075481565b60065481565b6000602052806000526040600020600091509050806000015490806001018054610ec890611aa3565b80601f0160208091040260200160405190810160405280929190818152602001828054610ef490611aa3565b8015610f415780601f10610f1657610100808354040283529160200191610f41565b820191906000526020600020905b815481529060010190602001808311610f2457829003601f168201915b5050505050908060020160009054906101000a900473ffffffffffffffffffffffffffffffffffffffff1690806003018054610f7c90611aa3565b80601f0160208091040260200160405190810160405280929190818152602001828054610fa890611aa3565b8015610ff55780601f10610fca57610100808354040283529160200191610ff5565b820191906000526020600020905b815481529060010190602001808311610fd857829003601f168201915b5050505050905084565b6004600081548092919061101290611ad5565b9190505550604051806080016040528060045481526020018481526020018373ffffffffffffffffffffffffffffffffffffffff16815260200182815250600080600454815260200190815260200160002060008201518160000155602082015181600101908051906020019061108a9291906112a0565b5060408201518160020160006101000a81548173ffffffffffffffffffffffffffffffffffffffff021916908373ffffffffffffffffffffffffffffffffffffffff16021790555060608201518160030190805190602001906110ee9291906112a0565b509050507fb3c0129139229af9b991bad672ad636fe1d7cfd42764400245c611aeb7b5efd66004548484604051611127939291906117ea565b60405180910390a1505050565b60045481565b600360205280600052604060002060009150905080600001549080600101805461116390611aa3565b80601f016020809104026020016040519081016040528092919081815260200182805461118f90611aa3565b80156111dc5780601f106111b1576101008083540402835291602001916111dc565b820191906000526020600020905b8154815290600101906020018083116111bf57829003601f168201915b5050505050908060020160009054906101000a900473ffffffffffffffffffffffffffffffffffffffff169080600301805461121790611aa3565b80601f016020809104026020016040519081016040528092919081815260200182805461124390611aa3565b80156112905780601f1061126557610100808354040283529160200191611290565b820191906000526020600020905b81548152906001019060200180831161127357829003601f168201915b5050505050908060040154905085565b8280546112ac90611aa3565b90600052602060002090601f0160209004810192826112ce5760008555611315565b82601f106112e757805160ff1916838001178555611315565b82800160010185558215611315579182015b828111156113145782518255916020019190600101906112f9565b5b5090506113229190611326565b5090565b5b8082111561133f576000816000905550600101611327565b5090565b6000611356611351846119b9565b611988565b90508281526020810184848401111561136e57600080fd5b611379848285611a61565b509392505050565b60008135905061139081611bbc565b92915050565b600082601f8301126113a757600080fd5b81356113b7848260208601611343565b91505092915050565b6000813590506113cf81611bd3565b92915050565b6000806000606084860312156113ea57600080fd5b600084013567ffffffffffffffff81111561140457600080fd5b61141086828701611396565b935050602061142186828701611381565b925050604084013567ffffffffffffffff81111561143e57600080fd5b61144a86828701611396565b9150509250925092565b6000806040838503121561146757600080fd5b600083013567ffffffffffffffff81111561148157600080fd5b61148d85828601611396565b925050602061149e858286016113c0565b9150509250929050565b6000602082840312156114ba57600080fd5b60006114c8848285016113c0565b91505092915050565b600080604083850312156114e457600080fd5b60006114f2858286016113c0565b9250506020611503858286016113c0565b9150509250929050565b61151681611a25565b82525050565b6000611527826119fe565b6115318185611a09565b9350611541818560208601611a70565b61154a81611bab565b840191505092915050565b6000815461156281611aa3565b61156c8186611a1a565b945060018216600081146115875760018114611598576115cb565b60ff198316865281860193506115cb565b6115a1856119e9565b60005b838110156115c3578154818901526001820191506020810190506115a4565b838801955050505b50505092915050565b60006115e1601783611a09565b91507f52657461696c6f7220646f6573206e6f742065786973740000000000000000006000830152602082019050919050565b6000611621601783611a09565b91507f546f626163636f206e6f742064697374726962757465640000000000000000006000830152602082019050919050565b6000611661601683611a09565b91507f546f626163636f20646f6573206e6f74206578697374000000000000000000006000830152602082019050919050565b60006116a1601783611a09565b91507f50726f647563657220646f6573206e6f742065786973740000000000000000006000830152602082019050919050565b60006116e1600b83611a1a565b91507f64697374726962757465640000000000000000000000000000000000000000006000830152600b82019050919050565b61171d81611a57565b82525050565b600061172f8284611555565b915081905092915050565b6000611745826116d4565b9150819050919050565b60006020820190508181036000830152611768816115d4565b9050919050565b6000602082019050818103600083015261178881611614565b9050919050565b600060208201905081810360008301526117a881611654565b9050919050565b600060208201905081810360008301526117c881611694565b9050919050565b60006020820190506117e46000830184611714565b92915050565b60006060820190506117ff6000830186611714565b8181036020830152611811818561151c565b9050611820604083018461150d565b949350505050565b600060808201905061183d6000830187611714565b818103602083015261184f818661151c565b905061185e604083018561150d565b8181036060830152611870818461151c565b905095945050505050565b600060a0820190506118906000830188611714565b81810360208301526118a2818761151c565b90506118b1604083018661150d565b81810360608301526118c3818561151c565b90506118d26080830184611714565b9695505050505050565b60006080820190506118f16000830187611714565b8181036020830152611903818661151c565b90506119126040830185611714565b61191f6060830184611714565b95945050505050565b600060408201905061193d6000830185611714565b61194a6020830184611714565b9392505050565b60006060820190506119666000830186611714565b6119736020830185611714565b6119806040830184611714565b949350505050565b6000604051905081810181811067ffffffffffffffff821117156119af576119ae611b7c565b5b8060405250919050565b600067ffffffffffffffff8211156119d4576119d3611b7c565b5b601f19601f8301169050602081019050919050565b60008190508160005260206000209050919050565b600081519050919050565b600082825260208201905092915050565b600081905092915050565b6000611a3082611a37565b9050919050565b600073ffffffffffffffffffffffffffffffffffffffff82169050919050565b6000819050919050565b82818337600083830152505050565b60005b83811015611a8e578082015181840152602081019050611a73565b83811115611a9d576000848401525b50505050565b60006002820490506001821680611abb57607f821691505b60208210811415611acf57611ace611b4d565b5b50919050565b6000611ae082611a57565b91507fffffffffffffffffffffffffffffffffffffffffffffffffffffffffffffffff821415611b1357611b12611b1e565b5b600182019050919050565b7f4e487b7100000000000000000000000000000000000000000000000000000000600052601160045260246000fd5b7f4e487b7100000000000000000000000000000000000000000000000000000000600052602260045260246000fd5b7f4e487b7100000000000000000000000000000000000000000000000000000000600052604160045260246000fd5b6000601f19601f8301169050919050565b611bc581611a25565b8114611bd057600080fd5b50565b611bdc81611a57565b8114611be757600080fd5b5056fea26469706673582212209382ef13f3059bdbf0b6fc4be337ac4bd88498b9a68d8684e9b4a2a3fadbeb9c64736f6c63430008000033",
  "immutableReferences": {},
  "source": "// SPDX-License-Identifier: MIT\npragma solidity ^0.8.0;\n\ncontract TobaccoSupplyChain {\n    struct Tobacco {\n        uint tobaccoID;\n        string tobaccoName;\n        address owner;\n        string state;\n        uint timestamp;\n    }\n\n    struct Producer {\n        uint producerID;\n        string producerName;\n        address producerAddress;\n        string producerDescription;\n    }\n\n    struct Distributor {\n        uint distributorID;\n        string distributorName;\n        address distributorAddress;\n        string distributorDescription;\n    }\n\n    struct Retailor {\n        uint retailorID;\n        string retailorName;\n        address retailorAddress;\n        string retailorDescription;\n    }\n\n    mapping(uint => Producer) public producers;\n    mapping(uint => Distributor) public distributors;\n    mapping(uint => Retailor) public retailors;\n    mapping(uint => Tobacco) public tobaccos;\n\n    uint public producerCount = 0;\n    uint public distributorCount = 0;\n    uint public retailorCount = 0;\n    uint public tobaccoCount = 0;\n\n    event ProducerAdded(uint producerID, string producerName, address producerAddress);\n    event DistributorAdded(uint distributorID, string distributorName, address distributorAddress);\n    event RetailorAdded(uint retailorID, string retailorName, address retailorAddress);\n    event TobaccoAdded(uint tobaccoID, string tobaccoName, uint producerID, uint timestamp);\n    event TobaccoDistributed(uint tobaccoID, uint retailorID, uint timestamp);\n    event TobaccoSold(uint tobaccoID, uint timestamp);\n\n    function addProducer(string memory _producerName, address _producerAddress, string memory _producerDescription) public {\n        producerCount++;\n        producers[producerCount] = Producer(producerCount, _producerName, _producerAddress, _producerDescription);\n        emit ProducerAdded(producerCount, _producerName, _producerAddress);\n    }\n\n    function addDistributor(string memory _distributorName, address _distributorAddress, string memory _distributorDescription) public {\n        distributorCount++;\n        distributors[distributorCount] = Distributor(distributorCount, _distributorName, _distributorAddress, _distributorDescription);\n        emit DistributorAdded(distributorCount, _distributorName, _distributorAddress);\n    }\n\n    function addRetailor(string memory _retailorName, address _retailorAddress, string memory _retailorDescription) public {\n        retailorCount++;\n        retailors[retailorCount] = Retailor(retailorCount, _retailorName, _retailorAddress, _retailorDescription);\n        emit RetailorAdded(retailorCount, _retailorName, _retailorAddress);\n    }\n\n    function addTobacco(string memory _tobaccoName, uint _producerID) public {\n        require(producers[_producerID].producerAddress != address(0), \"Producer does not exist\");\n        tobaccoCount++;\n        tobaccos[tobaccoCount] = Tobacco(tobaccoCount, _tobaccoName, producers[_producerID].producerAddress, \"produced\", block.timestamp);\n        emit TobaccoAdded(tobaccoCount, _tobaccoName, _producerID, block.timestamp);\n    }\n\n    function distributeProduct(uint _tobaccoID, uint _retailorID) public {\n        require(retailors[_retailorID].retailorAddress != address(0), \"Retailor does not exist\");\n        Tobacco storage tobacco = tobaccos[_tobaccoID];\n        require(tobacco.owner != address(0), \"Tobacco does not exist\");\n        tobacco.owner = retailors[_retailorID].retailorAddress;\n        tobacco.state = \"distributed\";\n        tobacco.timestamp = block.timestamp;\n        emit TobaccoDistributed(_tobaccoID, _retailorID, block.timestamp);\n    }\n\n    function sellProduct(uint _tobaccoID) public {\n        Tobacco storage tobacco = tobaccos[_tobaccoID];\n        require(tobacco.owner != address(0), \"Tobacco does not exist\");\n        require(keccak256(abi.encodePacked((tobacco.state))) == keccak256(abi.encodePacked((\"distributed\"))), \"Tobacco not distributed\");\n        tobacco.state = \"sold\";\n        tobacco.timestamp = block.timestamp;\n        emit TobaccoSold(_tobaccoID, block.timestamp);\n    }\n}\n",
  "sourcePath": "/Users/rigelynn/TobaccoSupplyChain/contracts/TobaccoSupplyChain.sol",
  "compiler": {
    "name": "solc",
    "version": "0.8.0+commit.c7dfd78e.Emscripten.clang"
  },
  "schemaVersion": "3.4.16",
  "updatedAt": "2024-06-12T09:48:21.490Z",
  "networkType": "ethereum",
  "devdoc": {
    "kind": "dev",
    "methods": {},
    "version": 1
  },
  "userdoc": {
    "kind": "user",
    "methods": {},
    "version": 1
  }
}